{
  "_format": "hh-sol-artifact-1",
  "contractName": "Marketplace",
  "sourceName": "contracts/Marketplace.sol",
  "abi": [
    {
      "inputs": [],
      "stateMutability": "nonpayable",
      "type": "constructor"
    },
    {
      "anonymous": false,
      "inputs": [
        {
          "indexed": true,
          "internalType": "address",
          "name": "owner",
          "type": "address"
        },
        {
          "indexed": true,
          "internalType": "address",
          "name": "approved",
          "type": "address"
        },
        {
          "indexed": true,
          "internalType": "uint256",
          "name": "tokenId",
          "type": "uint256"
        }
      ],
      "name": "Approval",
      "type": "event"
    },
    {
      "anonymous": false,
      "inputs": [
        {
          "indexed": true,
          "internalType": "address",
          "name": "owner",
          "type": "address"
        },
        {
          "indexed": true,
          "internalType": "address",
          "name": "operator",
          "type": "address"
        },
        {
          "indexed": false,
          "internalType": "bool",
          "name": "approved",
          "type": "bool"
        }
      ],
      "name": "ApprovalForAll",
      "type": "event"
    },
    {
      "anonymous": false,
      "inputs": [
        {
          "indexed": true,
          "internalType": "address",
          "name": "from",
          "type": "address"
        },
        {
          "indexed": true,
          "internalType": "address",
          "name": "to",
          "type": "address"
        },
        {
          "indexed": true,
          "internalType": "uint256",
          "name": "tokenId",
          "type": "uint256"
        }
      ],
      "name": "Transfer",
      "type": "event"
    },
    {
      "inputs": [],
      "name": "NFTCounter",
      "outputs": [
        {
          "internalType": "uint256",
          "name": "",
          "type": "uint256"
        }
      ],
      "stateMutability": "view",
      "type": "function"
    },
    {
      "inputs": [
        {
          "internalType": "uint256",
          "name": "",
          "type": "uint256"
        }
      ],
      "name": "allNFTs",
      "outputs": [
        {
          "internalType": "uint256",
          "name": "tokenId",
          "type": "uint256"
        },
        {
          "internalType": "string",
          "name": "tokenName",
          "type": "string"
        },
        {
          "internalType": "string",
          "name": "tokenURI",
          "type": "string"
        },
        {
          "internalType": "address payable",
          "name": "mintedBy",
          "type": "address"
        },
        {
          "internalType": "address payable",
          "name": "currentOwner",
          "type": "address"
        },
        {
          "internalType": "address payable",
          "name": "previousOwner",
          "type": "address"
        },
        {
          "internalType": "uint256",
          "name": "price",
          "type": "uint256"
        },
        {
          "internalType": "uint256",
          "name": "numberOfTransfers",
          "type": "uint256"
        },
        {
          "internalType": "bool",
          "name": "forSale",
          "type": "bool"
        }
      ],
      "stateMutability": "view",
      "type": "function"
    },
    {
      "inputs": [
        {
          "internalType": "address",
          "name": "to",
          "type": "address"
        },
        {
          "internalType": "uint256",
          "name": "tokenId",
          "type": "uint256"
        }
      ],
      "name": "approve",
      "outputs": [],
      "stateMutability": "nonpayable",
      "type": "function"
    },
    {
      "inputs": [
        {
          "internalType": "address",
          "name": "owner",
          "type": "address"
        }
      ],
      "name": "balanceOf",
      "outputs": [
        {
          "internalType": "uint256",
          "name": "",
          "type": "uint256"
        }
      ],
      "stateMutability": "view",
      "type": "function"
    },
    {
      "inputs": [],
      "name": "baseURI",
      "outputs": [
        {
          "internalType": "string",
          "name": "",
          "type": "string"
        }
      ],
      "stateMutability": "view",
      "type": "function"
    },
    {
      "inputs": [
        {
          "internalType": "uint256",
          "name": "_tokenId",
          "type": "uint256"
        }
      ],
      "name": "buyToken",
      "outputs": [],
      "stateMutability": "payable",
      "type": "function"
    },
    {
      "inputs": [
        {
          "internalType": "uint256",
          "name": "_tokenId",
          "type": "uint256"
        },
        {
          "internalType": "uint256",
          "name": "_newPrice",
          "type": "uint256"
        }
      ],
      "name": "changeTokenPrice",
      "outputs": [],
      "stateMutability": "nonpayable",
      "type": "function"
    },
    {
      "inputs": [
        {
          "internalType": "uint256",
          "name": "fees",
          "type": "uint256"
        }
      ],
      "name": "changeplatformFees",
      "outputs": [],
      "stateMutability": "nonpayable",
      "type": "function"
    },
    {
      "inputs": [],
      "name": "collectionName",
      "outputs": [
        {
          "internalType": "string",
          "name": "",
          "type": "string"
        }
      ],
      "stateMutability": "view",
      "type": "function"
    },
    {
      "inputs": [],
      "name": "collectionNameSymbol",
      "outputs": [
        {
          "internalType": "string",
          "name": "",
          "type": "string"
        }
      ],
      "stateMutability": "view",
      "type": "function"
    },
    {
      "inputs": [
        {
          "internalType": "uint256",
          "name": "tokenId",
          "type": "uint256"
        }
      ],
      "name": "getApproved",
      "outputs": [
        {
          "internalType": "address",
          "name": "",
          "type": "address"
        }
      ],
      "stateMutability": "view",
      "type": "function"
    },
    {
      "inputs": [
        {
          "internalType": "address",
          "name": "user",
          "type": "address"
        }
      ],
      "name": "getNFTIds",
      "outputs": [
        {
          "internalType": "uint256[]",
          "name": "",
          "type": "uint256[]"
        }
      ],
      "stateMutability": "view",
      "type": "function"
    },
    {
      "inputs": [],
      "name": "getNumberOfTokensMinted",
      "outputs": [
        {
          "internalType": "uint256",
          "name": "",
          "type": "uint256"
        }
      ],
      "stateMutability": "view",
      "type": "function"
    },
    {
      "inputs": [
        {
          "internalType": "uint256",
          "name": "_tokenId",
          "type": "uint256"
        }
      ],
      "name": "getTokenExists",
      "outputs": [
        {
          "internalType": "bool",
          "name": "",
          "type": "bool"
        }
      ],
      "stateMutability": "view",
      "type": "function"
    },
    {
      "inputs": [
        {
          "internalType": "uint256",
          "name": "_tokenId",
          "type": "uint256"
        }
      ],
      "name": "getTokenMetaData",
      "outputs": [
        {
          "internalType": "string",
          "name": "",
          "type": "string"
        }
      ],
      "stateMutability": "view",
      "type": "function"
    },
    {
      "inputs": [
        {
          "internalType": "uint256",
          "name": "_tokenId",
          "type": "uint256"
        }
      ],
      "name": "getTokenOwner",
      "outputs": [
        {
          "internalType": "address",
          "name": "",
          "type": "address"
        }
      ],
      "stateMutability": "view",
      "type": "function"
    },
    {
      "inputs": [
        {
          "internalType": "address",
          "name": "_owner",
          "type": "address"
        }
      ],
      "name": "getTotalNumberOfTokensOwnedByAnAddress",
      "outputs": [
        {
          "internalType": "uint256",
          "name": "",
          "type": "uint256"
        }
      ],
      "stateMutability": "view",
      "type": "function"
    },
    {
      "inputs": [
        {
          "internalType": "address",
          "name": "owner",
          "type": "address"
        },
        {
          "internalType": "address",
          "name": "operator",
          "type": "address"
        }
      ],
      "name": "isApprovedForAll",
      "outputs": [
        {
          "internalType": "bool",
          "name": "",
          "type": "bool"
        }
      ],
      "stateMutability": "view",
      "type": "function"
    },
    {
      "inputs": [
        {
          "internalType": "uint256",
          "name": "_tokenId",
          "type": "uint256"
        }
      ],
      "name": "listNFT",
      "outputs": [],
      "stateMutability": "nonpayable",
      "type": "function"
    },
    {
      "inputs": [
        {
          "internalType": "string",
          "name": "_name",
          "type": "string"
        },
        {
          "internalType": "string",
          "name": "_tokenURI",
          "type": "string"
        },
        {
          "internalType": "uint256",
          "name": "_price",
          "type": "uint256"
        }
      ],
      "name": "mintNFT",
      "outputs": [],
      "stateMutability": "nonpayable",
      "type": "function"
    },
    {
      "inputs": [],
      "name": "name",
      "outputs": [
        {
          "internalType": "string",
          "name": "",
          "type": "string"
        }
      ],
      "stateMutability": "view",
      "type": "function"
    },
    {
      "inputs": [
        {
          "internalType": "uint256",
          "name": "tokenId",
          "type": "uint256"
        }
      ],
      "name": "ownerOf",
      "outputs": [
        {
          "internalType": "address",
          "name": "",
          "type": "address"
        }
      ],
      "stateMutability": "view",
      "type": "function"
    },
    {
      "inputs": [
        {
          "internalType": "address",
          "name": "from",
          "type": "address"
        },
        {
          "internalType": "address",
          "name": "to",
          "type": "address"
        },
        {
          "internalType": "uint256",
          "name": "tokenId",
          "type": "uint256"
        }
      ],
      "name": "safeTransferFrom",
      "outputs": [],
      "stateMutability": "nonpayable",
      "type": "function"
    },
    {
      "inputs": [
        {
          "internalType": "address",
          "name": "from",
          "type": "address"
        },
        {
          "internalType": "address",
          "name": "to",
          "type": "address"
        },
        {
          "internalType": "uint256",
          "name": "tokenId",
          "type": "uint256"
        },
        {
          "internalType": "bytes",
          "name": "_data",
          "type": "bytes"
        }
      ],
      "name": "safeTransferFrom",
      "outputs": [],
      "stateMutability": "nonpayable",
      "type": "function"
    },
    {
      "inputs": [
        {
          "internalType": "address",
          "name": "operator",
          "type": "address"
        },
        {
          "internalType": "bool",
          "name": "approved",
          "type": "bool"
        }
      ],
      "name": "setApprovalForAll",
      "outputs": [],
      "stateMutability": "nonpayable",
      "type": "function"
    },
    {
      "inputs": [
        {
          "internalType": "bytes4",
          "name": "interfaceId",
          "type": "bytes4"
        }
      ],
      "name": "supportsInterface",
      "outputs": [
        {
          "internalType": "bool",
          "name": "",
          "type": "bool"
        }
      ],
      "stateMutability": "view",
      "type": "function"
    },
    {
      "inputs": [],
      "name": "symbol",
      "outputs": [
        {
          "internalType": "string",
          "name": "",
          "type": "string"
        }
      ],
      "stateMutability": "view",
      "type": "function"
    },
    {
      "inputs": [
        {
          "internalType": "uint256",
          "name": "_tokenId",
          "type": "uint256"
        }
      ],
      "name": "toggleForSale",
      "outputs": [],
      "stateMutability": "nonpayable",
      "type": "function"
    },
    {
      "inputs": [
        {
          "internalType": "uint256",
          "name": "index",
          "type": "uint256"
        }
      ],
      "name": "tokenByIndex",
      "outputs": [
        {
          "internalType": "uint256",
          "name": "",
          "type": "uint256"
        }
      ],
      "stateMutability": "view",
      "type": "function"
    },
    {
      "inputs": [
        {
          "internalType": "address",
          "name": "owner",
          "type": "address"
        },
        {
          "internalType": "uint256",
          "name": "index",
          "type": "uint256"
        }
      ],
      "name": "tokenOfOwnerByIndex",
      "outputs": [
        {
          "internalType": "uint256",
          "name": "",
          "type": "uint256"
        }
      ],
      "stateMutability": "view",
      "type": "function"
    },
    {
      "inputs": [
        {
          "internalType": "uint256",
          "name": "tokenId",
          "type": "uint256"
        }
      ],
      "name": "tokenURI",
      "outputs": [
        {
          "internalType": "string",
          "name": "",
          "type": "string"
        }
      ],
      "stateMutability": "view",
      "type": "function"
    },
    {
      "inputs": [],
      "name": "totalSupply",
      "outputs": [
        {
          "internalType": "uint256",
          "name": "",
          "type": "uint256"
        }
      ],
      "stateMutability": "view",
      "type": "function"
    },
    {
      "inputs": [
        {
          "internalType": "address",
          "name": "from",
          "type": "address"
        },
        {
          "internalType": "address",
          "name": "to",
          "type": "address"
        },
        {
          "internalType": "uint256",
          "name": "tokenId",
          "type": "uint256"
        }
      ],
      "name": "transferFrom",
      "outputs": [],
      "stateMutability": "nonpayable",
      "type": "function"
    }
  ],
  "bytecode": "0x60806040526003600a553480156200001657600080fd5b506040518060400160405280600781526020017f4e46544e616d65000000000000000000000000000000000000000000000000008152506040518060400160405280600481526020017f4e46544e000000000000000000000000000000000000000000000000000000008152506200009b6301ffc9a760e01b6200015160201b60201c565b8160069081620000ac9190620005d6565b508060079081620000be9190620005d6565b50620000d76380ac58cd60e01b6200015160201b60201c565b620000ef635b5e139f60e01b6200015160201b60201c565b6200010763780e9d6360e01b6200015160201b60201c565b5050620001196200022860201b60201c565b600c9081620001299190620005d6565b506200013a620002c260201b60201c565b600d90816200014a9190620005d6565b5062000740565b63ffffffff60e01b817bffffffffffffffffffffffffffffffffffffffffffffffffffffffff191603620001bc576040517f08c379a0000000000000000000000000000000000000000000000000000000008152600401620001b3906200071e565b60405180910390fd5b6001600080837bffffffffffffffffffffffffffffffffffffffffffffffffffffffff19167bffffffffffffffffffffffffffffffffffffffffffffffffffffffff1916815260200190815260200160002060006101000a81548160ff02191690831515021790555050565b6060600680546200023990620003c5565b80601f01602080910402602001604051908101604052809291908181526020018280546200026790620003c5565b8015620002b85780601f106200028c57610100808354040283529160200191620002b8565b820191906000526020600020905b8154815290600101906020018083116200029a57829003601f168201915b5050505050905090565b606060078054620002d390620003c5565b80601f01602080910402602001604051908101604052809291908181526020018280546200030190620003c5565b8015620003525780601f10620003265761010080835404028352916020019162000352565b820191906000526020600020905b8154815290600101906020018083116200033457829003601f168201915b5050505050905090565b600081519050919050565b7f4e487b7100000000000000000000000000000000000000000000000000000000600052604160045260246000fd5b7f4e487b7100000000000000000000000000000000000000000000000000000000600052602260045260246000fd5b60006002820490506001821680620003de57607f821691505b602082108103620003f457620003f362000396565b5b50919050565b60008190508160005260206000209050919050565b60006020601f8301049050919050565b600082821b905092915050565b6000600883026200045e7fffffffffffffffffffffffffffffffffffffffffffffffffffffffffffffffff826200041f565b6200046a86836200041f565b95508019841693508086168417925050509392505050565b6000819050919050565b6000819050919050565b6000620004b7620004b1620004ab8462000482565b6200048c565b62000482565b9050919050565b6000819050919050565b620004d38362000496565b620004eb620004e282620004be565b8484546200042c565b825550505050565b600090565b62000502620004f3565b6200050f818484620004c8565b505050565b5b8181101562000537576200052b600082620004f8565b60018101905062000515565b5050565b601f82111562000586576200055081620003fa565b6200055b846200040f565b810160208510156200056b578190505b620005836200057a856200040f565b83018262000514565b50505b505050565b600082821c905092915050565b6000620005ab600019846008026200058b565b1980831691505092915050565b6000620005c6838362000598565b9150826002028217905092915050565b620005e1826200035c565b67ffffffffffffffff811115620005fd57620005fc62000367565b5b620006098254620003c5565b620006168282856200053b565b600060209050601f8311600181146200064e576000841562000639578287015190505b620006458582620005b8565b865550620006b5565b601f1984166200065e86620003fa565b60005b82811015620006885784890151825560018201915060208501945060208101905062000661565b86831015620006a85784890151620006a4601f89168262000598565b8355505b6001600288020188555050505b505050505050565b600082825260208201905092915050565b7f4552433136353a20696e76616c696420696e7465726661636520696400000000600082015250565b600062000706601c83620006bd565b91506200071382620006ce565b602082019050919050565b600060208201905081810360008301526200073981620006f7565b9050919050565b6158a380620007506000396000f3fe6080604052600436106101ed5760003560e01c806364b309071161010d578063a5cd761f116100a0578063c87b56dd1161006f578063c87b56dd14610765578063cc151f3a146107a2578063d076f13f146107cd578063e5326ab1146107f6578063e985e9c514610821576101ed565b8063a5cd761f1461067d578063b88d4fde146106ba578063bf162d67146106e3578063bf3c8b7b14610728576101ed565b806370a08231116100dc57806370a08231146105c357806395d89b4114610600578063a22cb4651461062b578063a32018b914610654576101ed565b806364b309071461050757806367c623cf146105305780636c0360eb1461056d5780636f9507f914610598576101ed565b80632d296bf1116101855780634f6ccce7116101545780634f6ccce7146104395780635508d8e11461047657806362e8e8ac146104a15780636352211e146104ca576101ed565b80632d296bf11461037a5780632f745c591461039657806342842e0e146103d357806343902850146103fc576101ed565b8063095ea7b3116101c1578063095ea7b3146102c0578063142687f3146102e957806318160ddd1461032657806323b872dd14610351576101ed565b8062b1e187146101f257806301ffc9a71461021b57806306fdde0314610258578063081812fc14610283575b600080fd5b3480156101fe57600080fd5b5061021960048036038101906102149190613dfe565b61085e565b005b34801561022757600080fd5b50610242600480360381019061023d9190613e83565b6108f8565b60405161024f9190613ecb565b60405180910390f35b34801561026457600080fd5b5061026d61095f565b60405161027a9190613f76565b60405180910390f35b34801561028f57600080fd5b506102aa60048036038101906102a59190613dfe565b6109f1565b6040516102b79190613fd9565b60405180910390f35b3480156102cc57600080fd5b506102e760048036038101906102e29190614020565b610a76565b005b3480156102f557600080fd5b50610310600480360381019061030b9190613dfe565b610b8d565b60405161031d9190613ecb565b60405180910390f35b34801561033257600080fd5b5061033b610ba4565b604051610348919061406f565b60405180910390f35b34801561035d57600080fd5b506103786004803603810190610373919061408a565b610bb5565b005b610394600480360381019061038f9190613dfe565b610c15565b005b3480156103a257600080fd5b506103bd60048036038101906103b89190614020565b611260565b6040516103ca919061406f565b60405180910390f35b3480156103df57600080fd5b506103fa60048036038101906103f5919061408a565b6112bb565b005b34801561040857600080fd5b50610423600480360381019061041e91906140dd565b6112db565b604051610430919061406f565b60405180910390f35b34801561044557600080fd5b50610460600480360381019061045b9190613dfe565b6112f2565b60405161046d919061406f565b60405180910390f35b34801561048257600080fd5b5061048b611315565b604051610498919061406f565b60405180910390f35b3480156104ad57600080fd5b506104c860048036038101906104c3919061410a565b61131b565b005b3480156104d657600080fd5b506104f160048036038101906104ec9190613dfe565b611794565b6040516104fe9190613fd9565b60405180910390f35b34801561051357600080fd5b5061052e6004803603810190610529919061427f565b6117cb565b005b34801561053c57600080fd5b5061055760048036038101906105529190613dfe565b611a6b565b6040516105649190613f76565b60405180910390f35b34801561057957600080fd5b50610582611a83565b60405161058f9190613f76565b60405180910390f35b3480156105a457600080fd5b506105ad611b15565b6040516105ba9190613f76565b60405180910390f35b3480156105cf57600080fd5b506105ea60048036038101906105e591906140dd565b611ba3565b6040516105f7919061406f565b60405180910390f35b34801561060c57600080fd5b50610615611c61565b6040516106229190613f76565b60405180910390f35b34801561063757600080fd5b50610652600480360381019061064d9190614336565b611cf3565b005b34801561066057600080fd5b5061067b60048036038101906106769190613dfe565b611e73565b005b34801561068957600080fd5b506106a4600480360381019061069f9190613dfe565b6122f3565b6040516106b19190613fd9565b60405180910390f35b3480156106c657600080fd5b506106e160048036038101906106dc9190614417565b61230a565b005b3480156106ef57600080fd5b5061070a60048036038101906107059190613dfe565b61236c565b60405161071f999897969594939291906144bb565b60405180910390f35b34801561073457600080fd5b5061074f600480360381019061074a91906140dd565b612537565b60405161075c9190614614565b60405180910390f35b34801561077157600080fd5b5061078c60048036038101906107879190613dfe565b612657565b6040516107999190613f76565b60405180910390f35b3480156107ae57600080fd5b506107b76127c9565b6040516107c4919061406f565b60405180910390f35b3480156107d957600080fd5b506107f460048036038101906107ef9190613dfe565b6127dd565b005b34801561080257600080fd5b5061080b612c5d565b6040516108189190613f76565b60405180910390f35b34801561082d57600080fd5b5061084860048036038101906108439190614636565b612ceb565b6040516108559190613ecb565b60405180910390f35b600b60009054906101000a900473ffffffffffffffffffffffffffffffffffffffff1673ffffffffffffffffffffffffffffffffffffffff163373ffffffffffffffffffffffffffffffffffffffff16146108ee576040517f08c379a00000000000000000000000000000000000000000000000000000000081526004016108e5906146c2565b60405180910390fd5b80600a8190555050565b6000806000837bffffffffffffffffffffffffffffffffffffffffffffffffffffffff19167bffffffffffffffffffffffffffffffffffffffffffffffffffffffff1916815260200190815260200160002060009054906101000a900460ff169050919050565b60606006805461096e90614711565b80601f016020809104026020016040519081016040528092919081815260200182805461099a90614711565b80156109e75780601f106109bc576101008083540402835291602001916109e7565b820191906000526020600020905b8154815290600101906020018083116109ca57829003601f168201915b5050505050905090565b60006109fc82612d7f565b610a3b576040517f08c379a0000000000000000000000000000000000000000000000000000000008152600401610a32906147b4565b60405180910390fd5b6004600083815260200190815260200160002060009054906101000a900473ffffffffffffffffffffffffffffffffffffffff169050919050565b6000610a8182611794565b90508073ffffffffffffffffffffffffffffffffffffffff168373ffffffffffffffffffffffffffffffffffffffff1603610af1576040517f08c379a0000000000000000000000000000000000000000000000000000000008152600401610ae890614846565b60405180910390fd5b8073ffffffffffffffffffffffffffffffffffffffff16610b10612d9c565b73ffffffffffffffffffffffffffffffffffffffff161480610b3f5750610b3e81610b39612d9c565b612ceb565b5b610b7e576040517f08c379a0000000000000000000000000000000000000000000000000000000008152600401610b75906148d8565b60405180910390fd5b610b888383612da4565b505050565b600080610b9983612d7f565b905080915050919050565b6000610bb06002612e5d565b905090565b610bc6610bc0612d9c565b82612e72565b610c05576040517f08c379a0000000000000000000000000000000000000000000000000000000008152600401610bfc9061496a565b60405180910390fd5b610c10838383612f50565b505050565b600073ffffffffffffffffffffffffffffffffffffffff163373ffffffffffffffffffffffffffffffffffffffff1603610c4e57600080fd5b610c5781612d7f565b610c6057600080fd5b6000610c6b82611794565b9050600073ffffffffffffffffffffffffffffffffffffffff168173ffffffffffffffffffffffffffffffffffffffff1603610ca657600080fd5b3373ffffffffffffffffffffffffffffffffffffffff168173ffffffffffffffffffffffffffffffffffffffff1603610cde57600080fd5b6000600f60008481526020019081526020016000206040518061012001604052908160008201548152602001600182018054610d1990614711565b80601f0160208091040260200160405190810160405280929190818152602001828054610d4590614711565b8015610d925780601f10610d6757610100808354040283529160200191610d92565b820191906000526020600020905b815481529060010190602001808311610d7557829003601f168201915b50505050508152602001600282018054610dab90614711565b80601f0160208091040260200160405190810160405280929190818152602001828054610dd790614711565b8015610e245780601f10610df957610100808354040283529160200191610e24565b820191906000526020600020905b815481529060010190602001808311610e0757829003601f168201915b505050505081526020016003820160009054906101000a900473ffffffffffffffffffffffffffffffffffffffff1673ffffffffffffffffffffffffffffffffffffffff1673ffffffffffffffffffffffffffffffffffffffff1681526020016004820160009054906101000a900473ffffffffffffffffffffffffffffffffffffffff1673ffffffffffffffffffffffffffffffffffffffff1673ffffffffffffffffffffffffffffffffffffffff1681526020016005820160009054906101000a900473ffffffffffffffffffffffffffffffffffffffff1673ffffffffffffffffffffffffffffffffffffffff1673ffffffffffffffffffffffffffffffffffffffff16815260200160068201548152602001600782015481526020016008820160009054906101000a900460ff16151515158152505090508060c001513414610f7057600080fd5b806101000151610f7f57600080fd5b610f8a823385612f50565b600060648260c00151600a54610fa091906149b9565b610faa9190614a2a565b90506000826080015190508073ffffffffffffffffffffffffffffffffffffffff166108fc838560c00151610fdf9190614a5b565b9081150290604051600060405180830381858888f1935050505015801561100a573d6000803e3d6000fd5b50600b60009054906101000a900473ffffffffffffffffffffffffffffffffffffffff1673ffffffffffffffffffffffffffffffffffffffff166108fc839081150290604051600060405180830381858888f19350505050158015611073573d6000803e3d6000fd5b5082608001518360a0019073ffffffffffffffffffffffffffffffffffffffff16908173ffffffffffffffffffffffffffffffffffffffff168152505033836080019073ffffffffffffffffffffffffffffffffffffffff16908173ffffffffffffffffffffffffffffffffffffffff168152505060018360e0018181516110fb9190614a8f565b9150818152505082600f60008781526020019081526020016000206000820151816000015560208201518160010190816111359190614c6f565b50604082015181600201908161114b9190614c6f565b5060608201518160030160006101000a81548173ffffffffffffffffffffffffffffffffffffffff021916908373ffffffffffffffffffffffffffffffffffffffff16021790555060808201518160040160006101000a81548173ffffffffffffffffffffffffffffffffffffffff021916908373ffffffffffffffffffffffffffffffffffffffff16021790555060a08201518160050160006101000a81548173ffffffffffffffffffffffffffffffffffffffff021916908373ffffffffffffffffffffffffffffffffffffffff16021790555060c0820151816006015560e082015181600701556101008201518160080160006101000a81548160ff0219169083151502179055509050505050505050565b60006112b382600160008673ffffffffffffffffffffffffffffffffffffffff1673ffffffffffffffffffffffffffffffffffffffff16815260200190815260200160002061316690919063ffffffff16565b905092915050565b6112d68383836040518060200160405280600081525061230a565b505050565b6000806112e783611ba3565b905080915050919050565b60008061130983600261318090919063ffffffff16565b50905080915050919050565b600e5481565b600073ffffffffffffffffffffffffffffffffffffffff163373ffffffffffffffffffffffffffffffffffffffff160361135457600080fd5b61135d82612d7f565b61136657600080fd5b600061137183611794565b90503373ffffffffffffffffffffffffffffffffffffffff168173ffffffffffffffffffffffffffffffffffffffff16146113ab57600080fd5b6000600f600085815260200190815260200160002060405180610120016040529081600082015481526020016001820180546113e690614711565b80601f016020809104026020016040519081016040528092919081815260200182805461141290614711565b801561145f5780601f106114345761010080835404028352916020019161145f565b820191906000526020600020905b81548152906001019060200180831161144257829003601f168201915b5050505050815260200160028201805461147890614711565b80601f01602080910402602001604051908101604052809291908181526020018280546114a490614711565b80156114f15780601f106114c6576101008083540402835291602001916114f1565b820191906000526020600020905b8154815290600101906020018083116114d457829003601f168201915b505050505081526020016003820160009054906101000a900473ffffffffffffffffffffffffffffffffffffffff1673ffffffffffffffffffffffffffffffffffffffff1673ffffffffffffffffffffffffffffffffffffffff1681526020016004820160009054906101000a900473ffffffffffffffffffffffffffffffffffffffff1673ffffffffffffffffffffffffffffffffffffffff1673ffffffffffffffffffffffffffffffffffffffff1681526020016005820160009054906101000a900473ffffffffffffffffffffffffffffffffffffffff1673ffffffffffffffffffffffffffffffffffffffff1673ffffffffffffffffffffffffffffffffffffffff16815260200160068201548152602001600782015481526020016008820160009054906101000a900460ff1615151515815250509050828160c001818152505080600f600086815260200190815260200160002060008201518160000155602082015181600101908161166a9190614c6f565b5060408201518160020190816116809190614c6f565b5060608201518160030160006101000a81548173ffffffffffffffffffffffffffffffffffffffff021916908373ffffffffffffffffffffffffffffffffffffffff16021790555060808201518160040160006101000a81548173ffffffffffffffffffffffffffffffffffffffff021916908373ffffffffffffffffffffffffffffffffffffffff16021790555060a08201518160050160006101000a81548173ffffffffffffffffffffffffffffffffffffffff021916908373ffffffffffffffffffffffffffffffffffffffff16021790555060c0820151816006015560e082015181600701556101008201518160080160006101000a81548160ff02191690831515021790555090505050505050565b60006117c4826040518060600160405280602981526020016158456029913960026131ac9092919063ffffffff16565b9050919050565b600073ffffffffffffffffffffffffffffffffffffffff163373ffffffffffffffffffffffffffffffffffffffff160361180457600080fd5b600e600081548092919061181790614d41565b9190505550611827600e54612d7f565b15611867576040517f08c379a000000000000000000000000000000000000000000000000000000000815260040161185e90614dd5565b60405180910390fd5b61187333600e546131cb565b61187f600e5483613358565b6000604051806101200160405280600e5481526020018581526020018481526020013373ffffffffffffffffffffffffffffffffffffffff1681526020013373ffffffffffffffffffffffffffffffffffffffff168152602001600073ffffffffffffffffffffffffffffffffffffffff1681526020018381526020016000815260200160011515815250905080600f6000600e5481526020019081526020016000206000820151816000015560208201518160010190816119419190614c6f565b5060408201518160020190816119579190614c6f565b5060608201518160030160006101000a81548173ffffffffffffffffffffffffffffffffffffffff021916908373ffffffffffffffffffffffffffffffffffffffff16021790555060808201518160040160006101000a81548173ffffffffffffffffffffffffffffffffffffffff021916908373ffffffffffffffffffffffffffffffffffffffff16021790555060a08201518160050160006101000a81548173ffffffffffffffffffffffffffffffffffffffff021916908373ffffffffffffffffffffffffffffffffffffffff16021790555060c0820151816006015560e082015181600701556101008201518160080160006101000a81548160ff02191690831515021790555090505050505050565b60606000611a7883612657565b905080915050919050565b606060098054611a9290614711565b80601f0160208091040260200160405190810160405280929190818152602001828054611abe90614711565b8015611b0b5780601f10611ae057610100808354040283529160200191611b0b565b820191906000526020600020905b815481529060010190602001808311611aee57829003601f168201915b5050505050905090565b600d8054611b2290614711565b80601f0160208091040260200160405190810160405280929190818152602001828054611b4e90614711565b8015611b9b5780601f10611b7057610100808354040283529160200191611b9b565b820191906000526020600020905b815481529060010190602001808311611b7e57829003601f168201915b505050505081565b60008073ffffffffffffffffffffffffffffffffffffffff168273ffffffffffffffffffffffffffffffffffffffff1603611c13576040517f08c379a0000000000000000000000000000000000000000000000000000000008152600401611c0a90614e67565b60405180910390fd5b611c5a600160008473ffffffffffffffffffffffffffffffffffffffff1673ffffffffffffffffffffffffffffffffffffffff1681526020019081526020016000206133c5565b9050919050565b606060078054611c7090614711565b80601f0160208091040260200160405190810160405280929190818152602001828054611c9c90614711565b8015611ce95780601f10611cbe57610100808354040283529160200191611ce9565b820191906000526020600020905b815481529060010190602001808311611ccc57829003601f168201915b5050505050905090565b611cfb612d9c565b73ffffffffffffffffffffffffffffffffffffffff168273ffffffffffffffffffffffffffffffffffffffff1603611d68576040517f08c379a0000000000000000000000000000000000000000000000000000000008152600401611d5f90614ed3565b60405180910390fd5b8060056000611d75612d9c565b73ffffffffffffffffffffffffffffffffffffffff1673ffffffffffffffffffffffffffffffffffffffff16815260200190815260200160002060008473ffffffffffffffffffffffffffffffffffffffff1673ffffffffffffffffffffffffffffffffffffffff16815260200190815260200160002060006101000a81548160ff0219169083151502179055508173ffffffffffffffffffffffffffffffffffffffff16611e22612d9c565b73ffffffffffffffffffffffffffffffffffffffff167f17307eab39ab6107e8899845ad3d59bd9653f200f220920489ca2b5937696c3183604051611e679190613ecb565b60405180910390a35050565b600073ffffffffffffffffffffffffffffffffffffffff163373ffffffffffffffffffffffffffffffffffffffff1603611eac57600080fd5b611eb581612d7f565b611ebe57600080fd5b6000611ec982611794565b90503373ffffffffffffffffffffffffffffffffffffffff168173ffffffffffffffffffffffffffffffffffffffff1614611f0357600080fd5b6000600f60008481526020019081526020016000206040518061012001604052908160008201548152602001600182018054611f3e90614711565b80601f0160208091040260200160405190810160405280929190818152602001828054611f6a90614711565b8015611fb75780601f10611f8c57610100808354040283529160200191611fb7565b820191906000526020600020905b815481529060010190602001808311611f9a57829003601f168201915b50505050508152602001600282018054611fd090614711565b80601f0160208091040260200160405190810160405280929190818152602001828054611ffc90614711565b80156120495780601f1061201e57610100808354040283529160200191612049565b820191906000526020600020905b81548152906001019060200180831161202c57829003601f168201915b505050505081526020016003820160009054906101000a900473ffffffffffffffffffffffffffffffffffffffff1673ffffffffffffffffffffffffffffffffffffffff1673ffffffffffffffffffffffffffffffffffffffff1681526020016004820160009054906101000a900473ffffffffffffffffffffffffffffffffffffffff1673ffffffffffffffffffffffffffffffffffffffff1673ffffffffffffffffffffffffffffffffffffffff1681526020016005820160009054906101000a900473ffffffffffffffffffffffffffffffffffffffff1673ffffffffffffffffffffffffffffffffffffffff1673ffffffffffffffffffffffffffffffffffffffff16815260200160068201548152602001600782015481526020016008820160009054906101000a900460ff161515151581525050905060008161010001901515908115158152505080600f60008581526020019081526020016000206000820151816000015560208201518160010190816121ca9190614c6f565b5060408201518160020190816121e09190614c6f565b5060608201518160030160006101000a81548173ffffffffffffffffffffffffffffffffffffffff021916908373ffffffffffffffffffffffffffffffffffffffff16021790555060808201518160040160006101000a81548173ffffffffffffffffffffffffffffffffffffffff021916908373ffffffffffffffffffffffffffffffffffffffff16021790555060a08201518160050160006101000a81548173ffffffffffffffffffffffffffffffffffffffff021916908373ffffffffffffffffffffffffffffffffffffffff16021790555060c0820151816006015560e082015181600701556101008201518160080160006101000a81548160ff021916908315150217905550905050505050565b6000806122ff83611794565b905080915050919050565b61231b612315612d9c565b83612e72565b61235a576040517f08c379a00000000000000000000000000000000000000000000000000000000081526004016123519061496a565b60405180910390fd5b612366848484846133da565b50505050565b600f60205280600052604060002060009150905080600001549080600101805461239590614711565b80601f01602080910402602001604051908101604052809291908181526020018280546123c190614711565b801561240e5780601f106123e35761010080835404028352916020019161240e565b820191906000526020600020905b8154815290600101906020018083116123f157829003601f168201915b50505050509080600201805461242390614711565b80601f016020809104026020016040519081016040528092919081815260200182805461244f90614711565b801561249c5780601f106124715761010080835404028352916020019161249c565b820191906000526020600020905b81548152906001019060200180831161247f57829003601f168201915b5050505050908060030160009054906101000a900473ffffffffffffffffffffffffffffffffffffffff16908060040160009054906101000a900473ffffffffffffffffffffffffffffffffffffffff16908060050160009054906101000a900473ffffffffffffffffffffffffffffffffffffffff16908060060154908060070154908060080160009054906101000a900460ff16905089565b60606000612544836112db565b905060008167ffffffffffffffff81111561256257612561614154565b5b6040519080825280602002602001820160405280156125905781602001602082028036833780820191505090505b50905060005b8281101561264c573073ffffffffffffffffffffffffffffffffffffffff16632f745c5986836040518363ffffffff1660e01b81526004016125d9929190614ef3565b602060405180830381865afa1580156125f6573d6000803e3d6000fd5b505050506040513d601f19601f8201168201806040525081019061261a9190614f31565b82828151811061262d5761262c614f5e565b5b602002602001018181525050808061264490614d41565b915050612596565b508092505050919050565b606061266282612d7f565b6126a1576040517f08c379a000000000000000000000000000000000000000000000000000000000815260040161269890614fff565b60405180910390fd5b60006008600084815260200190815260200160002080546126c190614711565b80601f01602080910402602001604051908101604052809291908181526020018280546126ed90614711565b801561273a5780601f1061270f5761010080835404028352916020019161273a565b820191906000526020600020905b81548152906001019060200180831161271d57829003601f168201915b50505050509050600061274b611a83565b905060008151036127605781925050506127c4565b60008251111561279557808260405160200161277d92919061505b565b604051602081830303815290604052925050506127c4565b8061279f85613436565b6040516020016127b092919061505b565b604051602081830303815290604052925050505b919050565b6000806127d4610ba4565b90508091505090565b600073ffffffffffffffffffffffffffffffffffffffff163373ffffffffffffffffffffffffffffffffffffffff160361281657600080fd5b61281f81612d7f565b61282857600080fd5b600061283382611794565b90503373ffffffffffffffffffffffffffffffffffffffff168173ffffffffffffffffffffffffffffffffffffffff161461286d57600080fd5b6000600f600084815260200190815260200160002060405180610120016040529081600082015481526020016001820180546128a890614711565b80601f01602080910402602001604051908101604052809291908181526020018280546128d490614711565b80156129215780601f106128f657610100808354040283529160200191612921565b820191906000526020600020905b81548152906001019060200180831161290457829003601f168201915b5050505050815260200160028201805461293a90614711565b80601f016020809104026020016040519081016040528092919081815260200182805461296690614711565b80156129b35780601f10612988576101008083540402835291602001916129b3565b820191906000526020600020905b81548152906001019060200180831161299657829003601f168201915b505050505081526020016003820160009054906101000a900473ffffffffffffffffffffffffffffffffffffffff1673ffffffffffffffffffffffffffffffffffffffff1673ffffffffffffffffffffffffffffffffffffffff1681526020016004820160009054906101000a900473ffffffffffffffffffffffffffffffffffffffff1673ffffffffffffffffffffffffffffffffffffffff1673ffffffffffffffffffffffffffffffffffffffff1681526020016005820160009054906101000a900473ffffffffffffffffffffffffffffffffffffffff1673ffffffffffffffffffffffffffffffffffffffff1673ffffffffffffffffffffffffffffffffffffffff16815260200160068201548152602001600782015481526020016008820160009054906101000a900460ff161515151581525050905060018161010001901515908115158152505080600f6000858152602001908152602001600020600082015181600001556020820151816001019081612b349190614c6f565b506040820151816002019081612b4a9190614c6f565b5060608201518160030160006101000a81548173ffffffffffffffffffffffffffffffffffffffff021916908373ffffffffffffffffffffffffffffffffffffffff16021790555060808201518160040160006101000a81548173ffffffffffffffffffffffffffffffffffffffff021916908373ffffffffffffffffffffffffffffffffffffffff16021790555060a08201518160050160006101000a81548173ffffffffffffffffffffffffffffffffffffffff021916908373ffffffffffffffffffffffffffffffffffffffff16021790555060c0820151816006015560e082015181600701556101008201518160080160006101000a81548160ff021916908315150217905550905050505050565b600c8054612c6a90614711565b80601f0160208091040260200160405190810160405280929190818152602001828054612c9690614711565b8015612ce35780601f10612cb857610100808354040283529160200191612ce3565b820191906000526020600020905b815481529060010190602001808311612cc657829003601f168201915b505050505081565b6000600560008473ffffffffffffffffffffffffffffffffffffffff1673ffffffffffffffffffffffffffffffffffffffff16815260200190815260200160002060008373ffffffffffffffffffffffffffffffffffffffff1673ffffffffffffffffffffffffffffffffffffffff16815260200190815260200160002060009054906101000a900460ff16905092915050565b6000612d958260026135a890919063ffffffff16565b9050919050565b600033905090565b816004600083815260200190815260200160002060006101000a81548173ffffffffffffffffffffffffffffffffffffffff021916908373ffffffffffffffffffffffffffffffffffffffff160217905550808273ffffffffffffffffffffffffffffffffffffffff16612e1783611794565b73ffffffffffffffffffffffffffffffffffffffff167f8c5be1e5ebec7d5bd14f71427d1e84f3dd0314c0f7b2291e5b200ac8c7c3b92560405160405180910390a45050565b6000612e6b826000016135c2565b9050919050565b6000612e7d82612d7f565b612ebc576040517f08c379a0000000000000000000000000000000000000000000000000000000008152600401612eb3906150f1565b60405180910390fd5b6000612ec783611794565b90508073ffffffffffffffffffffffffffffffffffffffff168473ffffffffffffffffffffffffffffffffffffffff161480612f3657508373ffffffffffffffffffffffffffffffffffffffff16612f1e846109f1565b73ffffffffffffffffffffffffffffffffffffffff16145b80612f475750612f468185612ceb565b5b91505092915050565b8273ffffffffffffffffffffffffffffffffffffffff16612f7082611794565b73ffffffffffffffffffffffffffffffffffffffff1614612fc6576040517f08c379a0000000000000000000000000000000000000000000000000000000008152600401612fbd90615183565b60405180910390fd5b600073ffffffffffffffffffffffffffffffffffffffff168273ffffffffffffffffffffffffffffffffffffffff1603613035576040517f08c379a000000000000000000000000000000000000000000000000000000000815260040161302c90615215565b60405180910390fd5b6130408383836135d3565b61304b600082612da4565b61309c81600160008673ffffffffffffffffffffffffffffffffffffffff1673ffffffffffffffffffffffffffffffffffffffff1681526020019081526020016000206135d890919063ffffffff16565b506130ee81600160008573ffffffffffffffffffffffffffffffffffffffff1673ffffffffffffffffffffffffffffffffffffffff1681526020019081526020016000206135f290919063ffffffff16565b506131058183600261360c9092919063ffffffff16565b50808273ffffffffffffffffffffffffffffffffffffffff168473ffffffffffffffffffffffffffffffffffffffff167fddf252ad1be2c89b69c2b068fc378daa952ba7f163c4a11628f55a4df523b3ef60405160405180910390a4505050565b60006131758360000183613641565b60001c905092915050565b60008060008061319386600001866136b5565b915091508160001c8160001c9350935050509250929050565b60006131bf846000018460001b8461373f565b60001c90509392505050565b600073ffffffffffffffffffffffffffffffffffffffff168273ffffffffffffffffffffffffffffffffffffffff160361323a576040517f08c379a000000000000000000000000000000000000000000000000000000000815260040161323190615281565b60405180910390fd5b61324381612d7f565b15613283576040517f08c379a000000000000000000000000000000000000000000000000000000000815260040161327a906152ed565b60405180910390fd5b61328f600083836135d3565b6132e081600160008573ffffffffffffffffffffffffffffffffffffffff1673ffffffffffffffffffffffffffffffffffffffff1681526020019081526020016000206135f290919063ffffffff16565b506132f78183600261360c9092919063ffffffff16565b50808273ffffffffffffffffffffffffffffffffffffffff16600073ffffffffffffffffffffffffffffffffffffffff167fddf252ad1be2c89b69c2b068fc378daa952ba7f163c4a11628f55a4df523b3ef60405160405180910390a45050565b61336182612d7f565b6133a0576040517f08c379a00000000000000000000000000000000000000000000000000000000081526004016133979061537f565b60405180910390fd5b806008600084815260200190815260200160002090816133c09190614c6f565b505050565b60006133d3826000016137e0565b9050919050565b6133e5848484612f50565b6133f1848484846137f1565b613430576040517f08c379a000000000000000000000000000000000000000000000000000000000815260040161342790615411565b60405180910390fd5b50505050565b60606000820361347d576040518060400160405280600181526020017f300000000000000000000000000000000000000000000000000000000000000081525090506135a3565b600082905060005b600082146134af57808061349890614d41565b915050600a826134a89190614a2a565b9150613485565b60008167ffffffffffffffff8111156134cb576134ca614154565b5b6040519080825280601f01601f1916602001820160405280156134fd5781602001600182028036833780820191505090505b509050600060018361350f9190614a5b565b90508593505b6000841461359b57600a8461352a9190615431565b60306135369190614a8f565b60f81b82828061354590615462565b93508151811061355857613557614f5e565b5b60200101907effffffffffffffffffffffffffffffffffffffffffffffffffffffffffffff1916908160001a905350600a846135949190614a2a565b9350613515565b819450505050505b919050565b60006135ba836000018360001b613955565b905092915050565b600081600001805490509050919050565b505050565b60006135ea836000018360001b613978565b905092915050565b6000613604836000018360001b613a90565b905092915050565b6000613638846000018460001b8473ffffffffffffffffffffffffffffffffffffffff1660001b613b00565b90509392505050565b60008183600001805490501161368c576040517f08c379a0000000000000000000000000000000000000000000000000000000008152600401613683906154fd565b60405180910390fd5b8260000182815481106136a2576136a1614f5e565b5b9060005260206000200154905092915050565b60008082846000018054905011613701576040517f08c379a00000000000000000000000000000000000000000000000000000000081526004016136f89061558f565b60405180910390fd5b600084600001848154811061371957613718614f5e565b5b906000526020600020906002020190508060000154816001015492509250509250929050565b600080846001016000858152602001908152602001600020549050600081141583906137a1576040517f08c379a00000000000000000000000000000000000000000000000000000000081526004016137989190613f76565b60405180910390fd5b50846000016001826137b39190614a5b565b815481106137c4576137c3614f5e565b5b9060005260206000209060020201600101549150509392505050565b600081600001805490509050919050565b60006138128473ffffffffffffffffffffffffffffffffffffffff16613beb565b61381f576001905061394d565b60006138e663150b7a0260e01b613834612d9c565b88878760405160240161384a9493929190615604565b604051602081830303815290604052907bffffffffffffffffffffffffffffffffffffffffffffffffffffffff19166020820180517bffffffffffffffffffffffffffffffffffffffffffffffffffffffff8381831617835250505050604051806060016040528060328152602001615813603291398773ffffffffffffffffffffffffffffffffffffffff16613bfe9092919063ffffffff16565b90506000818060200190518101906138fe9190615665565b905063150b7a0260e01b7bffffffffffffffffffffffffffffffffffffffffffffffffffffffff1916817bffffffffffffffffffffffffffffffffffffffffffffffffffffffff191614925050505b949350505050565b600080836001016000848152602001908152602001600020541415905092915050565b60008083600101600084815260200190815260200160002054905060008114613a845760006001826139aa9190614a5b565b90506000600186600001805490506139c29190614a5b565b905060008660000182815481106139dc576139db614f5e565b5b9060005260206000200154905080876000018481548110613a00576139ff614f5e565b5b9060005260206000200181905550600183613a1b9190614a8f565b8760010160008381526020019081526020016000208190555086600001805480613a4857613a47615692565b5b60019003818190600052602060002001600090559055866001016000878152602001908152602001600020600090556001945050505050613a8a565b60009150505b92915050565b6000613a9c8383613c16565b613af5578260000182908060018154018082558091505060019003906000526020600020016000909190919091505582600001805490508360010160008481526020019081526020016000208190555060019050613afa565b600090505b92915050565b60008084600101600085815260200190815260200160002054905060008103613ba657846000016040518060400160405280868152602001858152509080600181540180825580915050600190039060005260206000209060020201600090919091909150600082015181600001556020820151816001015550508460000180549050856001016000868152602001908152602001600020819055506001915050613be4565b8285600001600183613bb89190614a5b565b81548110613bc957613bc8614f5e565b5b90600052602060002090600202016001018190555060009150505b9392505050565b600080823b905060008111915050919050565b6060613c0d8484600085613c39565b90509392505050565b600080836001016000848152602001908152602001600020541415905092915050565b606082471015613c7e576040517f08c379a0000000000000000000000000000000000000000000000000000000008152600401613c7590615733565b60405180910390fd5b613c8785613beb565b613cc6576040517f08c379a0000000000000000000000000000000000000000000000000000000008152600401613cbd9061579f565b60405180910390fd5b6000808673ffffffffffffffffffffffffffffffffffffffff168587604051613cef91906157fb565b60006040518083038185875af1925050503d8060008114613d2c576040519150601f19603f3d011682016040523d82523d6000602084013e613d31565b606091505b5091509150613d41828286613d4d565b92505050949350505050565b60608315613d5d57829050613dad565b600083511115613d705782518084602001fd5b816040517f08c379a0000000000000000000000000000000000000000000000000000000008152600401613da49190613f76565b60405180910390fd5b9392505050565b6000604051905090565b600080fd5b600080fd5b6000819050919050565b613ddb81613dc8565b8114613de657600080fd5b50565b600081359050613df881613dd2565b92915050565b600060208284031215613e1457613e13613dbe565b5b6000613e2284828501613de9565b91505092915050565b60007fffffffff0000000000000000000000000000000000000000000000000000000082169050919050565b613e6081613e2b565b8114613e6b57600080fd5b50565b600081359050613e7d81613e57565b92915050565b600060208284031215613e9957613e98613dbe565b5b6000613ea784828501613e6e565b91505092915050565b60008115159050919050565b613ec581613eb0565b82525050565b6000602082019050613ee06000830184613ebc565b92915050565b600081519050919050565b600082825260208201905092915050565b60005b83811015613f20578082015181840152602081019050613f05565b60008484015250505050565b6000601f19601f8301169050919050565b6000613f4882613ee6565b613f528185613ef1565b9350613f62818560208601613f02565b613f6b81613f2c565b840191505092915050565b60006020820190508181036000830152613f908184613f3d565b905092915050565b600073ffffffffffffffffffffffffffffffffffffffff82169050919050565b6000613fc382613f98565b9050919050565b613fd381613fb8565b82525050565b6000602082019050613fee6000830184613fca565b92915050565b613ffd81613fb8565b811461400857600080fd5b50565b60008135905061401a81613ff4565b92915050565b6000806040838503121561403757614036613dbe565b5b60006140458582860161400b565b925050602061405685828601613de9565b9150509250929050565b61406981613dc8565b82525050565b60006020820190506140846000830184614060565b92915050565b6000806000606084860312156140a3576140a2613dbe565b5b60006140b18682870161400b565b93505060206140c28682870161400b565b92505060406140d386828701613de9565b9150509250925092565b6000602082840312156140f3576140f2613dbe565b5b60006141018482850161400b565b91505092915050565b6000806040838503121561412157614120613dbe565b5b600061412f85828601613de9565b925050602061414085828601613de9565b9150509250929050565b600080fd5b600080fd5b7f4e487b7100000000000000000000000000000000000000000000000000000000600052604160045260246000fd5b61418c82613f2c565b810181811067ffffffffffffffff821117156141ab576141aa614154565b5b80604052505050565b60006141be613db4565b90506141ca8282614183565b919050565b600067ffffffffffffffff8211156141ea576141e9614154565b5b6141f382613f2c565b9050602081019050919050565b82818337600083830152505050565b600061422261421d846141cf565b6141b4565b90508281526020810184848401111561423e5761423d61414f565b5b614249848285614200565b509392505050565b600082601f8301126142665761426561414a565b5b813561427684826020860161420f565b91505092915050565b60008060006060848603121561429857614297613dbe565b5b600084013567ffffffffffffffff8111156142b6576142b5613dc3565b5b6142c286828701614251565b935050602084013567ffffffffffffffff8111156142e3576142e2613dc3565b5b6142ef86828701614251565b925050604061430086828701613de9565b9150509250925092565b61431381613eb0565b811461431e57600080fd5b50565b6000813590506143308161430a565b92915050565b6000806040838503121561434d5761434c613dbe565b5b600061435b8582860161400b565b925050602061436c85828601614321565b9150509250929050565b600067ffffffffffffffff82111561439157614390614154565b5b61439a82613f2c565b9050602081019050919050565b60006143ba6143b584614376565b6141b4565b9050828152602081018484840111156143d6576143d561414f565b5b6143e1848285614200565b509392505050565b600082601f8301126143fe576143fd61414a565b5b813561440e8482602086016143a7565b91505092915050565b6000806000806080858703121561443157614430613dbe565b5b600061443f8782880161400b565b94505060206144508782880161400b565b935050604061446187828801613de9565b925050606085013567ffffffffffffffff81111561448257614481613dc3565b5b61448e878288016143e9565b91505092959194509250565b60006144a582613f98565b9050919050565b6144b58161449a565b82525050565b6000610120820190506144d1600083018c614060565b81810360208301526144e3818b613f3d565b905081810360408301526144f7818a613f3d565b905061450660608301896144ac565b61451360808301886144ac565b61452060a08301876144ac565b61452d60c0830186614060565b61453a60e0830185614060565b614548610100830184613ebc565b9a9950505050505050505050565b600081519050919050565b600082825260208201905092915050565b6000819050602082019050919050565b61458b81613dc8565b82525050565b600061459d8383614582565b60208301905092915050565b6000602082019050919050565b60006145c182614556565b6145cb8185614561565b93506145d683614572565b8060005b838110156146075781516145ee8882614591565b97506145f9836145a9565b9250506001810190506145da565b5085935050505092915050565b6000602082019050818103600083015261462e81846145b6565b905092915050565b6000806040838503121561464d5761464c613dbe565b5b600061465b8582860161400b565b925050602061466c8582860161400b565b9150509250929050565b7f61646d696e2063616e2063616c6c000000000000000000000000000000000000600082015250565b60006146ac600e83613ef1565b91506146b782614676565b602082019050919050565b600060208201905081810360008301526146db8161469f565b9050919050565b7f4e487b7100000000000000000000000000000000000000000000000000000000600052602260045260246000fd5b6000600282049050600182168061472957607f821691505b60208210810361473c5761473b6146e2565b5b50919050565b7f4552433732313a20617070726f76656420717565727920666f72206e6f6e657860008201527f697374656e7420746f6b656e0000000000000000000000000000000000000000602082015250565b600061479e602c83613ef1565b91506147a982614742565b604082019050919050565b600060208201905081810360008301526147cd81614791565b9050919050565b7f4552433732313a20617070726f76616c20746f2063757272656e74206f776e6560008201527f7200000000000000000000000000000000000000000000000000000000000000602082015250565b6000614830602183613ef1565b915061483b826147d4565b604082019050919050565b6000602082019050818103600083015261485f81614823565b9050919050565b7f4552433732313a20617070726f76652063616c6c6572206973206e6f74206f7760008201527f6e6572206e6f7220617070726f76656420666f7220616c6c0000000000000000602082015250565b60006148c2603883613ef1565b91506148cd82614866565b604082019050919050565b600060208201905081810360008301526148f1816148b5565b9050919050565b7f4552433732313a207472616e736665722063616c6c6572206973206e6f74206f60008201527f776e6572206e6f7220617070726f766564000000000000000000000000000000602082015250565b6000614954603183613ef1565b915061495f826148f8565b604082019050919050565b6000602082019050818103600083015261498381614947565b9050919050565b7f4e487b7100000000000000000000000000000000000000000000000000000000600052601160045260246000fd5b60006149c482613dc8565b91506149cf83613dc8565b92508282026149dd81613dc8565b915082820484148315176149f4576149f361498a565b5b5092915050565b7f4e487b7100000000000000000000000000000000000000000000000000000000600052601260045260246000fd5b6000614a3582613dc8565b9150614a4083613dc8565b925082614a5057614a4f6149fb565b5b828204905092915050565b6000614a6682613dc8565b9150614a7183613dc8565b9250828203905081811115614a8957614a8861498a565b5b92915050565b6000614a9a82613dc8565b9150614aa583613dc8565b9250828201905080821115614abd57614abc61498a565b5b92915050565b60008190508160005260206000209050919050565b60006020601f8301049050919050565b600082821b905092915050565b600060088302614b257fffffffffffffffffffffffffffffffffffffffffffffffffffffffffffffffff82614ae8565b614b2f8683614ae8565b95508019841693508086168417925050509392505050565b6000819050919050565b6000614b6c614b67614b6284613dc8565b614b47565b613dc8565b9050919050565b6000819050919050565b614b8683614b51565b614b9a614b9282614b73565b848454614af5565b825550505050565b600090565b614baf614ba2565b614bba818484614b7d565b505050565b5b81811015614bde57614bd3600082614ba7565b600181019050614bc0565b5050565b601f821115614c2357614bf481614ac3565b614bfd84614ad8565b81016020851015614c0c578190505b614c20614c1885614ad8565b830182614bbf565b50505b505050565b600082821c905092915050565b6000614c4660001984600802614c28565b1980831691505092915050565b6000614c5f8383614c35565b9150826002028217905092915050565b614c7882613ee6565b67ffffffffffffffff811115614c9157614c90614154565b5b614c9b8254614711565b614ca6828285614be2565b600060209050601f831160018114614cd95760008415614cc7578287015190505b614cd18582614c53565b865550614d39565b601f198416614ce786614ac3565b60005b82811015614d0f57848901518255600182019150602085019450602081019050614cea565b86831015614d2c5784890151614d28601f891682614c35565b8355505b6001600288020188555050505b505050505050565b6000614d4c82613dc8565b91507fffffffffffffffffffffffffffffffffffffffffffffffffffffffffffffffff8203614d7e57614d7d61498a565b5b600182019050919050565b7f6e667420696420616c7265616479206578697374000000000000000000000000600082015250565b6000614dbf601483613ef1565b9150614dca82614d89565b602082019050919050565b60006020820190508181036000830152614dee81614db2565b9050919050565b7f4552433732313a2062616c616e636520717565727920666f7220746865207a6560008201527f726f206164647265737300000000000000000000000000000000000000000000602082015250565b6000614e51602a83613ef1565b9150614e5c82614df5565b604082019050919050565b60006020820190508181036000830152614e8081614e44565b9050919050565b7f4552433732313a20617070726f766520746f2063616c6c657200000000000000600082015250565b6000614ebd601983613ef1565b9150614ec882614e87565b602082019050919050565b60006020820190508181036000830152614eec81614eb0565b9050919050565b6000604082019050614f086000830185613fca565b614f156020830184614060565b9392505050565b600081519050614f2b81613dd2565b92915050565b600060208284031215614f4757614f46613dbe565b5b6000614f5584828501614f1c565b91505092915050565b7f4e487b7100000000000000000000000000000000000000000000000000000000600052603260045260246000fd5b7f4552433732314d657461646174613a2055524920717565727920666f72206e6f60008201527f6e6578697374656e7420746f6b656e0000000000000000000000000000000000602082015250565b6000614fe9602f83613ef1565b9150614ff482614f8d565b604082019050919050565b6000602082019050818103600083015261501881614fdc565b9050919050565b600081905092915050565b600061503582613ee6565b61503f818561501f565b935061504f818560208601613f02565b80840191505092915050565b6000615067828561502a565b9150615073828461502a565b91508190509392505050565b7f4552433732313a206f70657261746f7220717565727920666f72206e6f6e657860008201527f697374656e7420746f6b656e0000000000000000000000000000000000000000602082015250565b60006150db602c83613ef1565b91506150e68261507f565b604082019050919050565b6000602082019050818103600083015261510a816150ce565b9050919050565b7f4552433732313a207472616e73666572206f6620746f6b656e2074686174206960008201527f73206e6f74206f776e0000000000000000000000000000000000000000000000602082015250565b600061516d602983613ef1565b915061517882615111565b604082019050919050565b6000602082019050818103600083015261519c81615160565b9050919050565b7f4552433732313a207472616e7366657220746f20746865207a65726f2061646460008201527f7265737300000000000000000000000000000000000000000000000000000000602082015250565b60006151ff602483613ef1565b915061520a826151a3565b604082019050919050565b6000602082019050818103600083015261522e816151f2565b9050919050565b7f4552433732313a206d696e7420746f20746865207a65726f2061646472657373600082015250565b600061526b602083613ef1565b915061527682615235565b602082019050919050565b6000602082019050818103600083015261529a8161525e565b9050919050565b7f4552433732313a20746f6b656e20616c7265616479206d696e74656400000000600082015250565b60006152d7601c83613ef1565b91506152e2826152a1565b602082019050919050565b60006020820190508181036000830152615306816152ca565b9050919050565b7f4552433732314d657461646174613a2055524920736574206f66206e6f6e657860008201527f697374656e7420746f6b656e0000000000000000000000000000000000000000602082015250565b6000615369602c83613ef1565b91506153748261530d565b604082019050919050565b600060208201905081810360008301526153988161535c565b9050919050565b7f4552433732313a207472616e7366657220746f206e6f6e20455243373231526560008201527f63656976657220696d706c656d656e7465720000000000000000000000000000602082015250565b60006153fb603283613ef1565b91506154068261539f565b604082019050919050565b6000602082019050818103600083015261542a816153ee565b9050919050565b600061543c82613dc8565b915061544783613dc8565b925082615457576154566149fb565b5b828206905092915050565b600061546d82613dc8565b9150600082036154805761547f61498a565b5b600182039050919050565b7f456e756d657261626c655365743a20696e646578206f7574206f6620626f756e60008201527f6473000000000000000000000000000000000000000000000000000000000000602082015250565b60006154e7602283613ef1565b91506154f28261548b565b604082019050919050565b60006020820190508181036000830152615516816154da565b9050919050565b7f456e756d657261626c654d61703a20696e646578206f7574206f6620626f756e60008201527f6473000000000000000000000000000000000000000000000000000000000000602082015250565b6000615579602283613ef1565b91506155848261551d565b604082019050919050565b600060208201905081810360008301526155a88161556c565b9050919050565b600081519050919050565b600082825260208201905092915050565b60006155d6826155af565b6155e081856155ba565b93506155f0818560208601613f02565b6155f981613f2c565b840191505092915050565b600060808201905061561960008301876144ac565b6156266020830186613fca565b6156336040830185614060565b818103606083015261564581846155cb565b905095945050505050565b60008151905061565f81613e57565b92915050565b60006020828403121561567b5761567a613dbe565b5b600061568984828501615650565b91505092915050565b7f4e487b7100000000000000000000000000000000000000000000000000000000600052603160045260246000fd5b7f416464726573733a20696e73756666696369656e742062616c616e636520666f60008201527f722063616c6c0000000000000000000000000000000000000000000000000000602082015250565b600061571d602683613ef1565b9150615728826156c1565b604082019050919050565b6000602082019050818103600083015261574c81615710565b9050919050565b7f416464726573733a2063616c6c20746f206e6f6e2d636f6e7472616374000000600082015250565b6000615789601d83613ef1565b915061579482615753565b602082019050919050565b600060208201905081810360008301526157b88161577c565b9050919050565b600081905092915050565b60006157d5826155af565b6157df81856157bf565b93506157ef818560208601613f02565b80840191505092915050565b600061580782846157ca565b91508190509291505056fe4552433732313a207472616e7366657220746f206e6f6e20455243373231526563656976657220696d706c656d656e7465724552433732313a206f776e657220717565727920666f72206e6f6e6578697374656e7420746f6b656ea264697066735822122003e3d9c406bf21ddd260fa30cbcacf601d5630a5fb9dc4e71909bd68e345d26c64736f6c63430008120033",
  "linkReferences": {},
  "deployedLinkReferences": {}
}